:100000000C940F030C9437030C9437030C943703B0
:100010000C9437030C9437030C9437030C94370378
:100020000C9437030C9437030C9437030C94370368
:100030000C9437030C9437030C9437030C94370358
:100040000C945B110C9437030C9429110C9403113C
:100050000C9437030C9437030C9437030C94370338
:100060000C94A5110C94370308000000BE9224499B
:10007000123EABAAAA2ABECDCCCC4C3E00000080DA
:10008000BEABAAAAAA3E00000000BF000000803F4D
:100090000000000000084178D3BB4387D1133D190D
:1000A0000E3CC3BD4282AD2B3E68EC8276BED98F3A
:1000B000E1A93E4C80EFFFBE01C4FF7F3F0000007E
:1000C000000000000000003E5B4F5B3E3E6B4F6B4C
:1000D0003E1C3E7C3E1C183C7E3C181C577D571C29
:1000E0001C5E7F5E1C00183C1800FFE7C3E7FF00A2
:1000F00018241800FFE7DBE7FF30483A060E2629F0
:10010000792926407F050507407F05253F5A3CE7B2
:100110003C5A7F3E1C1C08081C1C3E7F14227F2278
:10012000145F5F005F5F06097F017F006689956A43
:10013000606060606094A2FFA29408047E040810CE
:10014000207E201008082A1C08081C2A08081E10F7
:100150001010100C1E0C1E0C30383E3830060E3EAF
:100160000E06000000000000005F0000000700070E
:1001700000147F147F14242A7F2A12231308646238
:1001800036495620500008070300001C2241000099
:1001900041221C002A1C7F1C2A08083E08080080F7
:1001A000703000080808080800006060002010088F
:1001B00004023E5149453E00427F40007249494990
:1001C000462141494D331814127F102745454539C2
:1001D0003C4A4949314121110907364949493646C6
:1001E0004949291E000014000000403400000008A6
:1001F0001422411414141414004122140802015949
:1002000009063E415D594E7C1211127C7F494949D5
:10021000363E414141227F4141413E7F494949416A
:100220007F090909013E414151737F0808087F0099
:10023000417F41002040413F017F081422417F401F
:100240004040407F021C027F7F0408107F3E4141F6
:10025000413E7F090909063E4151215E7F09192966
:1002600046264949493203017F01033F4040403F50
:100270001F2040201F3F4038403F63140814630391
:10028000047804036159494D43007F414141020410
:10029000081020004141417F040201020440404017
:1002A0004040000307080020545478407F2844440D
:1002B000383844444428384444287F385454541827
:1002C00000087E090218A4A49C787F080404780022
:1002D000447D40002040403D007F10284400004104
:1002E0007F40007C047804787C0804047838444417
:1002F0004438FC1824241818242418FC7C0804040E
:1003000008485454542404043F44243C4040207C76
:100310001C2040201C3C4030403C44281028444CC9
:100320009090907C4464544C440008364100000096
:10033000770000004136080002010204023C262337
:10034000263C1EA1A161123A4040207A38545455EF
:1003500059215555794122545478422155547840B9
:1003600020545579400C1E52721239555555593941
:100370005454545939555454580000457C41000296
:10038000457D420001457C407D1211127DF02825FB
:1003900028F07C545545002054547C547C0A097F35
:1003A0004932494949323A4444443A324A48483049
:1003B0003A4141217A3A42402078009DA0A07D3DFB
:1003C0004242423D3D4040403D3C24FF2424487E83
:1003D0004943662B2FFC2F2BFF0929F620C0887E6E
:1003E000090320545479410000447D413048484A73
:1003F00032384040227A007A0A0A727D0D19317D26
:100400002629292F28262929292630484D402038F9
:100410000808080808080808382F10C8ACBA2F10B8
:100420002834FA00007B000008142A142222142A1F
:1004300014085500550055AA55AA55AAFF55FF5551
:10044000FF000000FF00101010FF00141414FF0044
:100450001010FF00FF1010F010F0141414FC001422
:1004600014F700FF0000FF00FF1414F404FC141440
:1004700017101F10101F101F1414141F001010103D
:10048000F0000000001F101010101F10101010F0CE
:1004900010000000FF101010101010101010FF10AE
:1004A000000000FF140000FF00FF00001F101700F5
:1004B00000FC04F414141710171414F404F40000CE
:1004C000FF00F714141414141414F700F714141480
:1004D000171410101F101F141414F4141010F0101F
:1004E000F000001F101F0000001F14000000FC148B
:1004F0000000F010F01010FF10FF141414FF14107F
:1005000010101F00000000F010FFFFFFFFFFF0F0D1
:10051000F0F0F0FFFFFF0000000000FFFF0F0F0FE3
:100520000F0F3844443844FC4A4A4A347E020206DB
:1005300006027E027E0263554941633844443C040E
:10054000407E201E2006027E020299A5E7A5991C86
:100550002A492A1C4C7201724C304A4D4D303048A9
:10056000784830BC625A463D3E494949007E010107
:10057000017E2A2A2A2A2A44445F444440514A449C
:100580004040444A51400000FF0103E080FF00006A
:1005900008086B6B083612362436060F090F060062
:1005A0000018180000001010003040FF0101001F6B
:1005B00001011E00191D1712003C3C3C3C000000CC
:1005C0000000000000080002010000030407000012
:1005D00000000000000000000000240027002A00A6
:1005E000000000002300260029000102040810205A
:1005F00040800102040810200102040810200000BD
:100600000000250028002B00040404040404040452
:10061000020202020202030303030303C0121124B5
:100620001FBECFEFD8E0DEBFCDBF13E0A0E0B1E04A
:10063000E2EBF9E302C005900D92A239B107D9F7B8
:1006400025E0A2E9B3E001C01D92AA30B207E1F7AC
:1006500013E0CFE0D3E004C02197FE010E94A71B66
:10066000CE30D107C9F70E94AB130C94D71C0C9461
:100670000000FC0120812EBD0DB407FEFDCF2EB57C
:10068000FC0120830895CF92DF92EF92FF92CF93E7
:10069000DF93B091D304A0E08111AB2F8091D404FB
:1006A00090E0880F991FAC0140525A4FC090D90476
:1006B000D090DA04E090DB04F090DC0430E020E03D
:1006C000FA01C591D491E881B90190E080E0EB2373
:1006D000EA130AC02F5F3F4F6C157D058E059F05FD
:1006E00078F36FEF7FEFCB01DF91CF91FF90EF9029
:1006F000DF90CF9008958230910538F0880F991FD0
:10070000880F991F05970197F1F708959F92AF926F
:10071000BF92CF92DF92EF92FF920F931F93CF93EE
:10072000DF93EC016B018885998511E0892B09F035
:1007300010E8F601A0808A2D8123992493948111D9
:10074000912C2C813D814E815F8160E271EA87E0CE
:1007500090E00E947F18022FB12CE22EF12C002392
:1007600019F0C7010E947B038A85877F09F04FC07B
:100770008D858F3F89F09A2D912381E009F480E0E7
:10078000891551F0EF85F8898F899923D1F19081EE
:10079000892B808399249394E989FA898081998DA2
:1007A000892B8083002319F0C7010E947B038E856B
:1007B0008F3F39F0EB89FC898081988D892309F07E
:1007C000B12AE989FA899081898D8095892380836E
:1007D0008E858F3F11F0F601B08288859985892B2F
:1007E00009F044C0110F1111BACFDF91CF911F91C1
:1007F0000F91FF90EF90DF90CF90BF90AF909F90C0
:1008000008959081809589238083912CC5CFE989B3
:10081000FA898081998D892B8083002319F0C70183
:100820000E947B038D858F3F49F0EF85F8898F8982
:100830009A2D9123B9F09081892B8083E989FA89D7
:100840009081898D8095892380838E858F3F09F4DF
:10085000BFCFEB89FC898081988D892309F4B8CFBB
:10086000B12AB6CF908180958923E7CF1695BBCF6B
:10087000AF92BF92CF92DF92EF92FF920F931F93AE
:10088000CF93DF936C017B018B01040F151FEB01EC
:100890005E01AE18BF08C017D10759F06991D601A3
:1008A000ED91FC910190F081E02DC6010995892B15
:1008B00079F7C501DF91CF911F910F91FF90EF90D4
:1008C000DF90CF90BF90AF900895FC01538D448D81
:1008D000252F30E0842F90E0821B930B541710F0EB
:1008E000CF96089501970895FC01918D828D9817F8
:1008F00061F0A28DAE0FBF2FB11D5D968C91928DD0
:100900009F5F9F73928F90E008958FEF9FEF089500
:10091000FC01918D828D981731F0828DE80FF11DC9
:10092000858D90E008958FEF9FEF0895FC01918DE4
:10093000228D892F90E0805C9F4F821B91098F73DD
:10094000992708958FE294E00E94960421E0892B74
:1009500009F420E0822F089580E090E0892B29F0AF
:100960000E94A20481110C9400000895FC01A48D42
:10097000A80FB92FB11DA35ABF4F2C91848D90E0C1
:1009800001968F739927848FA689B7892C93A089A4
:10099000B1898C91837080648C93938D848D98132E
:1009A00006C00288F389E02D80818F7D80830895C1
:1009B000EF92FF920F931F93CF93DF93EC0181E0AF
:1009C000888F9B8D8C8D98131AC0E889F989808156
:1009D00085FF15C09FB7F894EE89FF896083E88989
:1009E000F98980818370806480839FBF81E090E07B
:1009F000DF91CF911F910F91FF90EF900895F62E08
:100A00000B8D10E00F5F1F4F0F731127E02E8C8DA1
:100A10008E110CC00FB607FCFACFE889F9898081E6
:100A200085FFF5CFCE010E94B604F1CFEB8DEC0F20
:100A3000FD2FF11DE35AFF4FF0829FB7F8940B8F03
:100A4000EA89FB8980818062CFCFCF93DF93EC016D
:100A5000888D8823B9F0AA89BB89E889F9898C91A6
:100A600085FD03C0808186FD0DC00FB607FCF7CF62
:100A70008C9185FFF2CF808185FFEDCFCE010E9462
:100A8000B604E9CFDF91CF91089590E0FC01EE53D9
:100A9000FA4F2491FC01E651FA4F3491FC01E85FD2
:100AA000F94FE491EE23C9F0222339F0233001F10C
:100AB000A8F4213019F1223029F1F0E0EE0FFF1FE8
:100AC000E250FA4FA591B4918FB7F894EC9161116F
:100AD00026C030953E233C938FBF08952730A9F060
:100AE0002830C9F0243049F7809180008F7D03C001
:100AF000809180008F7780938000DFCF84B58F77DF
:100B000084BDDBCF84B58F7DFBCF8091B0008F7724
:100B10008093B000D2CF8091B0008F7DF9CF3E2B73
:100B2000DACFAF92BF92CF92DF92EF92FF920F9304
:100B30001F93CF93DF931F92CDB7DEB78C015B017C
:100B40006A01DC018D919C911197892B39F01296E5
:100B5000ED91FC91908181819CBD8DBDF8018385D3
:100B60008F3F19F060E00E9445057501CA0CDB1C3F
:100B7000CE14DF04A9F0D7018D917D018983F8019E
:100B800080819181892B29F0CE0101960E94390341
:100B9000EFCFBE016F5F7F4FC8010E948603E8CF91
:100BA000D8011B968C918F3F19F061E00E9445059A
:100BB00081E00F90DF91CF911F910F91FF90EF9007
:100BC000DF90CF90BF90AF900895CF93DF9390E0E8
:100BD000FC01E651FA4F2491885F994FFC01849102
:100BE0008823C9F090E0880F991FFC01EA52FA4F60
:100BF000A591B491FC01E250FA4FC591D4916111D5
:100C00000DC09FB7F8948C91209582238C93888196
:100C1000282328839FBFDF91CF910895623051F43C
:100C20009FB7F8943C91822F809583238C93E88121
:100C30002E2BEFCF8FB7F894EC912E2B2C938FBFE8
:100C4000EACF1F93CF93DF93182FEB0161E00E944F
:100C5000E505209739F460E0812FDF91CF911F9156
:100C60000C944505CF3FD10511F461E0F5CFE12F9C
:100C7000F0E0EE53FA4FE491E33031F140F4E1302B
:100C8000B1F0E230E1F0C038D1057CF7E4CFE730D5
:100C900029F1E83059F1E430B1F7809180008062A9
:100CA00080938000D0938B00C0938A0004C084B5E9
:100CB000806884BDC7BDDF91CF911F91089584B531
:100CC000806284BDC8BDF7CF80918000806880932A
:100CD0008000D0938900C0938800EDCF8091B00050
:100CE00080688093B000C093B300E5CF8091B000DE
:100CF00080628093B000C093B400DDCF8E3008F0E6
:100D00008E508770806480937C0080917A0080642C
:100D100080937A0080917A0086FDFCCF80917800E4
:100D20009091790008953FB7F894809104049091D0
:100D30000504A0910604B091070426B5A89B05C040
:100D40002F3F19F00196A11DB11D3FBFBA2FA92F4A
:100D5000982F8827BC01CD01620F711D811D911D47
:100D600042E0660F771F881F991F4A95D1F70895B3
:100D70008F929F92AF92BF92CF92DF92EF92FF92AB
:100D80004B015C010E9493066B017C010E9493065B
:100D90006C197D098E099F09683E73408105910594
:100DA000A8F321E0821A9108A108B10888EEC80EC4
:100DB00083E0D81EE11CF11C81149104A104B1044C
:100DC00029F7FF90EF90DF90CF90BF90AF909F906A
:100DD0008F900895CF92DF92EF92FF920F931F931F
:100DE000CF93DF93CDB7DEB7C054D1400FB6F894A0
:100DF000DEBF0FBECDBF2FB7F89480912B0490912A
:100E00002C04A0912D04B0912E042FBF4091D50445
:100E10005091D6046091D7047091D8048C019D0143
:100E2000041B150B260B370BB901A801403D574099
:100E30006105710590F48091DD04C05CDE4F0FB652
:100E4000F894DEBF0FBECDBFDF91CF911F910F9100
:100E5000FF90EF90DF90CF9008958093D50490930A
:100E6000D604A093D704B093D8041092D004109263
:100E7000CF041092CE041092CD041092CC0462E004
:100E80008091D1040E94E50561E070E080E090E08F
:100E90000E94B80661E08091D1040E94E50560E0FF
:100EA0008091D1040E9445058091D2048551823001
:100EB000E0F48BE291E10197F1F762E08091D104D7
:100EC0000E94E5058091DE0490E00E947B03F89487
:100ED00080E00E9443036F3F7F4F8F4F9F4F61F42D
:100EE0001092DD04789480E0A8CF64E170E080E0A7
:100EF00090E00E94B806E1CF81E00E9443036F3F7B
:100F00007F4F8F4F9F4F61F38E010F5F1F4F6E0119
:100F10008FEBC81A8EEFD80A780180E00E94430355
:100F2000F701608371838283938381E00E9443038E
:100F3000F7016483758386839783F8E0EF0EF11CD5
:100F4000EC14FD0451F7789430E020E0F801C08003
:100F5000D180E280F3804481558166817781FFEF03
:100F6000CF16DF06EF06FF0631F04F3F8FEF580731
:100F70006807780719F41092DD04B5CFF90183E012
:100F8000F595E7958A95E1F7E453FB4F8081880F4B
:100F9000C416D506E606F70610F180832F5F3F4F93
:100FA000085F1F4F2832310589F64091D004209107
:100FB000CC048091CD04280F3327331F8091CE04B9
:100FC000280F311D8091CF04820F932F911D9927F7
:100FD0004817190681F681E08093DD042ECF8160E9
:100FE000DCCF2091B903260F3327331F213231057F
:100FF000ECF42091DD03FC0190E080E0243069F006
:1010000082E00895A091B9032191AC0147565C4F4D
:10101000A40FB52FB11D2C930196861798F38091DC
:10102000B903680F6093B90380E0089581E00895E3
:1010300008958FEF9FEF08958FEF9FEF08958091B0
:10104000920390E09195819591090895CF93DF9354
:10105000CB01EA01642F0E94F107CE01DF91CF910D
:101060000895CF93DF931F92CDB7DEB7698361E018
:10107000CE0101960E94F10781E090E00F90DF9190
:10108000CF9108950895FC016370668B84819581EA
:1010900026813781613039F0633029F0918780876C
:1010A0003387228708953187208793878287089521
:1010B0002F923F924F925F926F927F928F929F9268
:1010C000AF92BF92CF92DF92EF92FF920F931F9356
:1010D000CF93DF93CDB7DEB76A970FB6F894DEBF34
:1010E0000FBECDBF9A8F898F7A8369834A01D22E32
:1010F00018870F833701BC2CDC0159962D913C9148
:101100005A972115310509F015C118968D919C91BA
:101110001997681779070CF0D7C11A968D919C9191
:10112000481759070CF0D0C14C2C512CB6E0CB9E7F
:10113000600D711D11247C876B87161617060CF045
:10114000C3C1EA2DF0E0FA87E98793E0EE0FFF1FB5
:101150009A95E1F7F88BEF87CF01840F951F18164A
:1011600019060CF0B1C1A98DBA8D58968C918111D8
:1011700004C0BFEABD1508F4D394A98DBA8DED91D2
:10118000FC9111970284F385E02DCD010995B5E01E
:10119000DB9EC0011124E981FA81FC83EB83312CB1
:1011A000212C9C012E533F4F388F2F8B4A2D50E01E
:1011B0005E8B4D8BEF89F88DE20DF31D44919E827D
:1011C0008D82D12CC12C69817A81620D731D7A8B3D
:1011D000698B842F90E09C8B8B8BE98DFA8DA0819D
:1011E000B18140FF82C0F1E0BF126FC0AF126DC08D
:1011F0001C96ED91FC912F813885A4014C0D5D1D4D
:1012000069897A89898D9A8D0995EB89FC89F5958B
:10121000E7954E2F5FEFC51AD50A6D817E818D89C6
:101220009E89680F791F7E836D8398E0C916D1046B
:1012300081F6AFEF2A1A3A0AEB81FC81E40DF51D25
:10124000FC83EB83F5E02F16310409F0B3CF2F8137
:10125000388526153705B9F0A98DBA8DED91FC9129
:10126000B1E0BB1257C0AB1255C069817A816B5F88
:101270007F4F0088F189E02D830128E030E0A40150
:10128000898D9A8D0995A98DBA8DED91FC91119753
:101290000688F789E02DCD016A960FB6F894DEBF77
:1012A0000FBECDBFDF91CF911F910F91FF90EF90B7
:1012B000DF90CF90BF90AF909F908F907F906F9076
:1012C0005F904F903F902F9009941E96ED91FC9166
:1012D000EF80F88409851A8592014D815E816B81CA
:1012E0007C81898D9A8D099590CF2F81388526151F
:1012F000370509F48ACF31E0B31207C0A31205C045
:101300001C96ED91FC91930178CF1E96ED91FC9186
:101310007301E0CF6B857C85641975090684F785B8
:10132000E02D73010F8518899201A401898D9A8D92
:101330000995A9CFF901349694913297459154912A
:10134000D91AB7E0DB9E400D511D1124F9012591FA
:1013500034913C8B2B8BFA0125903490FA01329614
:10136000749031963491398B3296649031964490D2
:1013700041E04C1518F04A1508F07FC0662D062C88
:10138000000C770B7C836B83842D042C000C990B51
:101390009E838D83A98DBA8DED91FC911197028466
:1013A000F385E02DCD010995512CD12CC12CEA2DCE
:1013B000F0E0FA87E9872B2D30E03C872B87A401EA
:1013C000440D511D47FC5A95588F4F8B69817A8186
:1013D000660D711D67FC7A957E876D877989C716C2
:1013E00008F051CF2C2D30E04D815E81420F531F0C
:1013F000A985BA854A9FC0014B9F900D5A9F900DB9
:101400001124FC01E80DF91DF88BEF87852D612C67
:101410004F89588D420F531F5E8B4D8B671408F018
:1014200050C044244394480E877041F4C101019692
:10143000EB89FC89E20DF31DD4901C01D7FE19C085
:10144000A98DBA8DED91FC91662D70E0B1E0BB12D3
:1014500019C0AB1217C02D853E85620F731F04841F
:10146000F585E02D2F8138854D895E89898D9A8D8E
:101470000995DD0C6394842DD1CF1E821D821C82C0
:101480001B8288CF4B815C81640F751FAB85BC8547
:101490006A9FC0016B9F900D7A9F900D1124698106
:1014A0007A81680F791F0684F785E02DEF80F88434
:1014B00009851A859D014F855889898D9A8D0995D1
:1014C000D8CF570CC3948ACF6A960FB6F894DEBF74
:1014D0000FBECDBFDF91CF911F910F91FF90EF9085
:1014E000DF90CF90BF90AF909F908F907F906F9044
:1014F0005F904F903F902F9008958F929F92AF9260
:10150000CF92EF92FF920F931F93CF93DF93EC0153
:10151000262F898D9A8D009709F051C06A30D1F439
:101520001D861C868D8948E0849F900111248E853C
:101530009F85820F931F9F878E8781E090E0DF91C8
:10154000CF911F910F91FF90EF90CF90AF909F9010
:101550008F9008956D3089F3CC88AD888F8988236A
:10156000C1F08C859D8536E0C39E800D911D1124B0
:10157000488559854817590764F44E855F851D864F
:101580001C8638E0A39EC0011124840F951F9F87FD
:101590008E87EA88FB88088919894E855F856C8566
:1015A0007D85CE010E9458082C898C859D8546E05A
:1015B000249F800D911D11249D878C87BECF6A309A
:1015C00069F41D861C86FC013896E4912D898E8570
:1015D0009F85E29F800D911D1124ADCF6D3009F4E0
:1015E000ACCFFC0134963491631708F4A6CF329641
:1015F000E491E61708F4A1CFFC013296859094900F
:10160000462F431B342F47E0349F800C911C11243C
:10161000F401329634913196E4913323A9F1EE230B
:1016200099F1CC88F4013596E491AD884F89442333
:1016300001F10E2E000CFF0BE30FF11DCE9EA00159
:10164000CF9E500D11246C857D85460F571F6885F0
:101650007985641775076CF44E855F851D861C8639
:10166000FC013896E491AE9E400D511D11245F8718
:101670004E87EA88FB88088919894E855F856C85C5
:101680007D85CE010E945808F4013496E4912C899E
:101690008C859D85E29F800D911D11248DCF6F92C9
:1016A0007F928F929F92AF92BF92CF92DF92EF92F2
:1016B000FF920F931F93CF93DF93EC016B015A01BD
:1016C00039014801E881F9810284F385E02D09950B
:1016D000E881F9810288F389E02D87019301A50152
:1016E000B601CE010995A501480D591D415051097A
:1016F000E881F9810288F389E02D9301B601CE01DA
:101700000995E881F9810088F189E02D9401A5010E
:10171000B601CE010995C60CD71CB60161507109FE
:10172000E881F9810088F189E02D9401A501CE01BD
:101730000995E881F9810688F789E02DCE01DF91CE
:10174000CF911F910F91FF90EF90DF90CF90BF90BE
:10175000AF909F908F907F906F9009946F927F923F
:101760008F929F92AF92BF92CF92DF92EF92FF92B1
:101770000F931F93CF93DF935C01EB016A01490143
:1017800038018701DC01ED91FC916217730719F5AF
:10179000641675062CF0962D872D3A01C92ED82E89
:1017A0009601261937092F5F3F4F048CF58DE02DE8
:1017B000A301BE01C5010995DF91CF911F910F9142
:1017C000FF90EF90DF90CF90BF90AF909F908F9061
:1017D0007F906F9008954615570591F426173707A7
:1017E00024F0892D4B01C22FD82F9E0128193909C9
:1017F0002F5F3F4F068CF78DE02DA601B401DACFA5
:101800000284F385E02D0995D501ED91FC910488C2
:10181000F589E02D83019401A601BE01C50109955A
:10182000D501ED91FC910688F789E02DC501DF9186
:10183000CF911F910F91FF90EF90DF90CF90BF90CD
:10184000AF909F908F907F906F900994EF92FF924E
:101850000F931F93DC011A960D911C911B971896FC
:101860002D913C911997ED91FC9100A0F1A1E02DF3
:101870007B0150E040E070E060E009951F910F911E
:10188000FF90EF9008954F925F926F927F928F92A8
:101890009F92AF92BF92CF92DF92EF92FF920F93FF
:1018A0001F93CF93DF936C012B015A01390148013B
:1018B000DC01ED91FC910284F385E02D0995E201B4
:1018C000640C751CD601ED91FC91C615D7055CF42E
:1018D0000088F189E02D87019401A501BE01C601B0
:1018E00009952196EFCF0688F789E02DC601DF9193
:1018F000CF911F910F91FF90EF90DF90CF90BF900D
:10190000AF909F908F907F906F905F904F900994D1
:101910008F929F92AF92BF92CF92DF92EF92FF92FF
:101920000F931F93CF93DF93EC015B014A01690191
:10193000E881F9810284F385E02D099595012C0D4C
:101940003D1D21503109E881F9810488F589E02D98
:1019500078018401A401B501CE010995E881F981DE
:101960000688F789E02DCE01DF91CF911F910F916D
:10197000FF90EF90DF90CF90BF90AF909F908F90AF
:1019800009948F929F92AF92BF92CF92DF92EF9283
:10199000FF920F931F93CF93DF93EC015B014A01FA
:1019A00069017801E881F9810284F385E02D0995C8
:1019B000C80CD91C860101501109E881F9810488FD
:1019C000F589E02D9501A401B501CE010995E881C5
:1019D000F9810688F789E02DCE01DF91CF911F9123
:1019E0000F91FF90EF90DF90CF90BF90AF909F90BE
:1019F0008F900994EF92FF920F931F93DC01ED916A
:101A0000FC9100A0F1A1E02D09951F910F91FF908D
:101A1000EF9008950F931F93DC01ED91FC91068CDC
:101A2000F78DE02D09951F910F9108950F931F9346
:101A3000DC01ED91FC91048CF58DE02D09951F9151
:101A40000F910895DC01ED91FC910084F185E02D6A
:101A500009942F923F924F925F926F927F928F9252
:101A60009F92AF92BF92CF92DF92EF92FF920F932D
:101A70001F93CF93DF9300D000D000D0CDB7DEB757
:101A80003C016A013E832D83FC82EB825801A41A3B
:101A9000B50AB7FE03C0B194A194B1088D809E80B1
:101AA000861A970A97FE03C09194819491088A142C
:101AB0009B045CF0902F812F0D811E819D838E836E
:101AC0009C2D8D2D6B01692F782F0C151D055CF059
:101AD0009D818E817E836D83692F782F902F812F3A
:101AE0008601C92ED82E1601201A310A2B012D810C
:101AF0003E81421A530A57FE03C051944194510843
:101B0000710137FE03C03FEFE31AF30AF594E7943F
:101B10008D819E81861797075CF5A1E0B0E0BA83BE
:101B2000A983C016D1064CF1D301ED91FC91048438
:101B3000F585E02D2B813C81A8016D817E818A1481
:101B40009B041CF04D815E81B801C3010995E41826
:101B5000F508F7FE0AC02D813E8189819A81280F00
:101B6000391F3E832D83E20CF31C0F5F1F4FD9CF2B
:101B70002FEF3FEF3A832983D4CF26960FB6F89400
:101B8000DEBF0FBECDBFDF91CF911F910F91FF90B0
:101B9000EF90DF90CF90BF90AF909F908F907F900D
:101BA0006F905F904F903F902F9008950F931F93E9
:101BB000CF93DF931F92CDB7DEB78C01698360E0CE
:101BC000FC01868D0E94450541E050E0BE016F5F3B
:101BD0007F4FF801838D948D0E9491050F90DF91C6
:101BE000CF911F910F910895CF938091FC0487FDB1
:101BF00013C061E00E94E50560E08091FC040E9452
:101C0000450561E070E080E090E00E94B80661E088
:101C10008091FC040E944505C091FF04C83008F083
:101C2000C7E0C093FF0461E28FED94E00E94D60DFF
:101C30006C2F60618FED94E00E94D60D60E28FED15
:101C400094E00E94D60DC091FE04C7FDCFE7C0937B
:101C5000FE0461E28FED94E00E94D60D6C2F606867
:101C60008FED94E00E94D60D60E28FED94E00E942B
:101C7000D60D60E28FED94E00E94D60D6CE08FED02
:101C800094E0CF910C94D60DFF920F931F93CF93B6
:101C9000DF9390910005992339F0809101058F5FC2
:101CA0008917E8F580930105D0910405D695D6955E
:101CB000D69584E5D89F80011124809105058695ED
:101CC000869586958D1780F16D2F60648FED94E079
:101CD0000E94D60DC0910205F09003056C2F60683C
:101CE0008FED94E00E94D60D61E08091FD040E948A
:101CF00045054F2D50E06C2F70E0461B570B4F5F92
:101D00005F4F600F711F60507F4F8091FA04909178
:101D1000FB040E949105DF5F0C5A1F4FCECF10923B
:101D200001050E94F40DC0CF60E48FED94E00E94A5
:101D3000D60D83E580930205109203058FE2809310
:101D4000040510920505DF91CF911F910F91FF902F
:101D500008951F93CF93DF93EC01162F60E20E944A
:101D6000D60D6CE011116DE0CE01DF91CF911F9186
:101D70000C94D60DFC0177FD55C0808591856817C0
:101D800079070CF04FC057FD4DC0828593854817E9
:101D900059070CF047C08689823009F444C083306B
:101DA00009F44EC0813031F48FE290E0861B970B2E
:101DB000BA01AC01842FA62F93A1691708F4962FBE
:101DC00093A394A19A1708F49A2F94A395A1891725
:101DD00008F4982F95A396A1981708F4982F96A326
:101DE000CA0157FD0796E3E095958795EA95E1F7D7
:101DF000A4E5A89FF001A99FF00D1124E60FF71F9D
:101E0000E050FF4FCA0168E070E00E94781B41E09B
:101E100050E001C0440F8A95EAF78081232BB9F086
:101E2000842B8083089583E590E0DC01A61BB70B2B
:101E3000BD018FE290E0DC01A41BB50BAD01BACF70
:101E400083E590E0841B950BAB01BC01B3CF4095BB
:101E50008423E7CF089590E080E008950E94D21C8B
:101E6000FB0101900020E9F73197AF01461B570BAA
:101E7000DC01ED91FC910280F381E02D09948F92B9
:101E80009F92AF92BF92EF92FF920F931F93CF93C7
:101E9000DF93CDB7DEB7A1970FB6F894DEBF0FBEC4
:101EA000CDBF7C01FA01CB0119A2223008F42AE04F
:101EB0008E010F5D1F4F822E912CB12CA12CBF01E2
:101EC000A50194010E947F18F901CA016A300CF53E
:101ED000605DD8016E938D01232B242B252B79F780
:101EE00090E080E0109721F0BD01C7010E94300F03
:101EF000A1960FB6F894DEBF0FBECDBFDF91CF9194
:101F00001F910F91FF90EF90BF90AF909F908F9097
:101F10000895695CDECF2F923F924F925F926F924D
:101F20007F928F929F92AF92BF92CF92DF92EF9269
:101F3000FF921F93CF93DF93EC016A017B01722E16
:101F4000AB019601CB01B6010E943E1B6CE373E02E
:101F5000811126C046015701E894B7F82FEF3FEFF3
:101F60004FE75FE7C501B4010E943E1B81110CC021
:101F70002FEF3FEF4FE75FE7C501B4010E941D1946
:101F800060E473E0181664F02FEF3FEF4FE75FE473
:101F9000C701B6010E947C1A1816B4F464E473E019
:101FA000CE01DF91CF911F91FF90EF90DF90CF9006
:101FB000BF90AF909F908F907F906F905F904F9069
:101FC0003F902F900C94300F2FEF3FEF4FE75FECD7
:101FD000C701B6010E941D1987FDE0CF20E030E067
:101FE000A901C701B6010E941D19312C212C87FFC0
:101FF0000DC0E881F9810190F081E02D6DE2CE0104
:1020000009951C01F7FAF094F7F8F09410E060E0FD
:1020100070E080E09FE3711641F020E030E040E2A4
:1020200051E40E9422191F5FF6CFA70196010E947A
:10203000B1182B013C010E949B194B015C012AE065
:10204000BC01A401CE010E943F0F7C01E20CF31CF5
:102050001123E1F1C501B4010E94CA199B01AC0131
:10206000C301B2010E94B0184B015C01E881F98103
:102070000190F081E02D6EE2CE010995E80EF91E87
:10208000115020F120E030E040E251E4C501B401FC
:102090000E94D11A2B013C010E949B194B01B12CCB
:1020A000A12C2AE0B501A401CE010E943F0FE80E49
:1020B000F91EC501B4010E94CA199B01AC01C301FC
:1020C000B2010E94B0184B015C01DACFC701DF9169
:1020D000CF911F91FF90EF90DF90CF90BF90AF9086
:1020E0009F908F907F906F905F904F903F902F9038
:1020F00008950F931F93CF93DF93EC0122E00E948A
:102100008B0F8C0168E473E0CE010E94300F800FCA
:10211000911FDF91CF911F910F9108951F93CF933E
:10212000DF9385ED8093BC00809195039091960399
:10213000A0919703B09198030796A11DB11D23E0CC
:10214000B695A795979587952A95D1F72091BC00CC
:1021500024FD03C01092DD0352C0409195035091BD
:1021600096036091970370919803452B462B472B5C
:1021700069F30097A105B10541F025E32A95F1F730
:1021800000000197A109B109E1CF80919403C1E05A
:10219000C0939303882399F1D091B8001091BA00AD
:1021A0008091BC008A7B8093BC0060E082E10E9449
:1021B000450560E083E10E9445051092DD03C09370
:1021C000DF031092DE0361E082E10E94450561E0D9
:1021D00083E10E9445058091B9008E7F8093B9000C
:1021E0008091B9008D7F8093B90088E48093B80016
:1021F00085E48093BC001093BA00D093B800DF91BF
:10220000CF911F9108951F920F920FB60F92112434
:102210002F933F934F935F936F937F938F939F93EE
:10222000AF93BF93EF93FF938FE294E00E94B604C5
:10223000FF91EF91BF91AF919F918F917F916F919E
:102240005F914F913F912F910F900FBE0F901F9074
:1022500018951F920F920FB60F9211242F938F9300
:102260009F93EF93FF93E0913F04F09140048081AE
:10227000E0914504F091460482FD1BC0908180915D
:1022800048048F5F8F7320914904821741F0E091D9
:102290004804F0E0E15DFB4F958F80934804FF9187
:1022A000EF919F918F912F910F900FBE0F901F90E4
:1022B00018958081F4CF1F920F920FB60F921124C0
:1022C0002F933F938F939F93AF93BF9380912B0452
:1022D00090912C04A0912D04B0912E043091030410
:1022E00023E0230F2D3758F50196A11DB11D209332
:1022F000030480932B0490932C04A0932D04B0939B
:102300002E048091040490910504A0910604B091DC
:1023100007040196A11DB11D809304049093050448
:10232000A0930604B0930704BF91AF919F918F9142
:102330003F912F910F900FBE0F901F90189526E898
:10234000230F0296A11DB11DD2CF1F920F920FB67F
:102350000F9211242F933F934F935F936F937F932B
:102360008F939F93AF93BF93EF93FF938091B900A7
:10237000887F803609F44AC0F0F5883209F4A5C098
:1023800018F5803109F499C0B8F4882309F4F5C030
:10239000883009F492C0FF91EF91BF91AF919F9166
:1023A0008F917F916F915F914F913F912F910F90FE
:1023B0000FBE0F901F901895883109F486C08032A7
:1023C00051F78093DC0314C0803409F49BC040F4BF
:1023D0008033B9F38833F9F68093DC0385ECAEC023
:1023E000803509F483C0883509F494C0883499F69F
:1023F0000E948E10D0CF883909F48AC038F588370A
:1024000029F050F4883611F0803729F683E0809364
:10241000DD031092DB0355C0883809F479C0803998
:1024200019F0803809F0B7CF8091DB03803208F0D3
:102430006FC0E091DB0381E08E0F8093DB0380911E
:10244000BB00F0E0E554FC4F80833BC0803B39F09B
:10245000D0F4803A09F477C0883A09F09CCF84E040
:102460008093DD031092BA031092B903F0E0E0E02C
:1024700009958091B90381110FC081E08093B90360
:102480001092990309C0803C09F4A8CF883C09F454
:10249000A5CF883B09F07FCFE091BA0381E08E0F92
:1024A0008093BA03F0E0E756FC4F80818093BB0035
:1024B0009091BA038091B90329C08091020480935E
:1024C000BB0085EC8093BC0066CF909101048091A5
:1024D0000004981758F5E091010481E08E0F809375
:1024E0000104F0E0E052FC4F8081E9CFE09101046B
:1024F00081E08E0F809301048091BB00F0E0E052F8
:10250000FC4F808390910104809100049817C8F2D9
:1025100085E8D8CFE091010481E08E0F809301041B
:102520008091BB00F0E0E052FC4F80838091DF039C
:1025300081115ECF81E08093DE0384EA8093BC004A
:102540001092DD0328CF85EC8093BC001092DD0350
:102550008091DB03803230F4E091DB03F0E0E5545E
:10256000FC4F10826091DB0370E08BEB93E0F0E0B6
:10257000E0E009951092DB030ECF1092DC0338CF18
:102580000F931F93CF93DF93EFE2F4E01382128255
:1025900088EE93E0A0E0B0E084839583A683B783C0
:1025A00082E093E09183808385EC90E09587848737
:1025B00084EC90E09787868780EC90E0918B808B0D
:1025C00081EC90E0938B828B82EC90E0958B848BF6
:1025D00086EC90E0978B868B118E128E138E148E64
:1025E000CFEDD4E01B821A8224E530E03D832C83BA
:1025F00080E390E09F838E83398728879B878A8733
:102600001E8A1D861C861F861E8681E08D8B8C8B04
:102610002FEF3FEF3B8B2A8B398B288B8F8B188EBC
:102620001A8E198E84E193E0998388838CE190E07F
:102630000E94AD1B8C0184E0D8011B968C931B97E4
:1026400087E01C968C931C978FEF1E968C931E9799
:1026500086E01D968C931D97ECE0F6E0E491F0E0A7
:10266000EE0FFF1FE250FA4F85919491F801968B7F
:10267000858BEEEEF5E0E4915A96EC935A97EEE0F6
:10268000F6E0E491F0E0EE0FFF1FE250FA4F859183
:102690009491F801908B8787E0EFF5E0E4915796ED
:1026A000EC935797EFE0F6E0E491F0E0EE0FFF1FB8
:1026B000E250FA4F85919491F801928B818BE1EF72
:1026C000F5E0E4915996EC9380E099E0ADE3B0E059
:1026D000F80184839583A683B78381E090E0918796
:1026E00080871286138E82E090E00E94AD1B20E569
:1026F000DC012C9311961C92F80193838283118242
:1027000010821C8F0B8F85E08E8F83E08D8FACEC59
:10271000B4E08BE015968C93159716968C931697CC
:10272000E5EFF5E0E4911796EC931797E3E1F6E017
:10273000E4911896EC93189740E85EE360E070E04F
:102740001D964D935D936D937C935097DF91CF9140
:102750001F910F910895CF93DF9300D000D0CDB794
:10276000DEB7789484B5826084BD84B5816084BD11
:1027700085B5826085BD85B5816085BD80916E001F
:10278000816080936E001092810080918100826050
:10279000809381008091810081608093810080918D
:1027A00080008160809380008091B100846080937C
:1027B000B1008091B00081608093B00080917A0078
:1027C000846080937A0080917A00826080937A009E
:1027D00080917A00816080937A0080917A0080688D
:1027E00080937A001092C100E0913F04F091400480
:1027F00082E08083E0913B04F0913C041082E09100
:102800003D04F0913E048FEC808310924704E091E8
:102810004304F091440486E08083E0914104F09108
:102820004204808180618083E0914104F091420400
:10283000808188608083E0914104F091420480812E
:1028400080688083E0914104F091420480818F7D13
:1028500080836BE473E08FE294E00E94300F68E4C1
:1028600073E08FE294E00E94300F62E08091D10427
:102870000E94E5052FB7F89480912B0490912C04C9
:10288000A0912D04B0912E042FBF805D9740A10927
:10289000B1098093D5049093D604A093D704B09344
:1028A000D80487E38093DE048091FA049091FB04BE
:1028B0009A838983FC0183858F3F49F061E00E9400
:1028C000E50561E0E981FA8183850E944505E9819A
:1028D000FA8180819181892B09F43CC11FB7F8945A
:1028E00080910804811127C0E2E1F6E08491E4EFD1
:1028F000F5E09491E82FF0E0EE0FFF1FEA52FA4F57
:10290000A591B491EC91E92321F461E08AE00E9461
:10291000450561E08AE00E94E5058CB580618CBDCB
:102920008CB580648CBD61E08DE00E94E50561E0BE
:102930008BE00E94E505809108048F5F8093080476
:102940001FBF81E0E981FA81838F61E08091FD04FE
:102950000E94E5058091FC0487FD03C061E00E94B0
:10296000E50584E08093FF0488E28093FE041092E2
:102970000005109201050E94F40D1092020580914D
:102980000305833508F483E580930305109204055D
:10299000809105058F3208F48FE2809305050E942F
:1029A000440E61E08DE00E94E50561E08CE00E944C
:1029B000E50560E08EE00E94E50561E083E10E94AC
:1029C000E50560E080E10E94E50561E08AE00E94A3
:1029D000E50564E670E08AE00E94210688EF282E73
:1029E0003324339400E010E020E030E0A90160914E
:1029F0002704709128048091290490912A040E9450
:102A00001D19181644F010922304109224041092F9
:102A10002504109226048EE00E947E06BC01990FC8
:102A2000880B990B0E94CC1920E030E040E85AE373
:102A30000E94D11A9B01AC010E94B1186B017C016C
:102A400020E030E44CE156E40E94D11A4B015C01D5
:102A5000A701960160E070E080E090E40E94B01869
:102A60009B01AC01C501B4010E9422192B013C015C
:102A70000E94891A4B015C0125E736E545E953E3DD
:102A80000E94D11AA50194010E94D11AA5019401B6
:102A90000E94D11A69837A838B839C832AEE3AEB56
:102AA00048E759E3C501B4010E94D11A2AE832E28D
:102AB00042E95AE30E94B1189B01AC0169817A8115
:102AC0008B819C810E94B1189B01AC0160E070E099
:102AD00080E89FE30E9422194B015C01A701960147
:102AE000C701B6010E94D11A6B017C0120E030E0E1
:102AF00040E250E4C301B2010E94D11A9B01AC0133
:102B0000C701B6010E94221920E030E04AE754E4F0
:102B10000E94D11A9B01AC01C501B4010E94B018FA
:102B200023E333E948E853E40E94B0180E94941963
:102B30004B017B0170932204609321046E31710577
:102B40009CF561E08DE00E94450560E08CE00E940C
:102B500045053CC061E0E981FA8184850E94E50574
:102B6000E981FA8182858B7F60E019F061E0E9817B
:102B7000FA8184850E944505E981FA8185858F3F28
:102B800049F061E00E94E50561E0E981FA8185850F
:102B90000E944505E981FA8186858F3F09F4D1CEEF
:102BA00060E00E94E505CDCE8EE18816910449F0E3
:102BB00060E08DE00E94450561E09BE2891691048A
:102BC0002CF6EAE2EE16F1040CF4BFCFE0E0F1E0FF
:102BD000C10111920197E9F7109202058091030556
:102BE000833508F483E580930305109204058091F2
:102BF00005058F3208F48FE2809305051092EC04EE
:102C00001092EB041092EE041092ED0481E0809398
:102C1000F3048093F404E1E0F0E0F093F204E09335
:102C2000F104F093F004E093EF0480E10E947E064B
:102C30002DE030E0DC010E948C1B2FEF33E040E000
:102C400050E00E946018CA01B9010E94CC1920E02E
:102C500030E040EF51E40E94B1180E949419072E11
:102C6000000C880B990B0E94CC196B017C01C0925F
:102C70001D04D0921E04E0921F04F0922004B401BF
:102C8000990C880B990B0E94CC199B01AC01C701D0
:102C9000B6010E94B01860932704709328048093B3
:102CA000290490932A046FE473E08FE294E00E9479
:102CB000300F4091270450912804609129047091AD
:102CC0002A048FE294E00E9479100E94EA06882389
:102CD00051F08091D2048B3030F08D3048F0855126
:102CE000823008F4AFC160E070E080EC9FE71CC068
:102CF0006091CD0470E090E080E00E94CC192DEC52
:102D00003CEC4CEC5DE30E94D11A6B017C016091BC
:102D1000CC0470E090E080E00E94CC199B01AC01F3
:102D2000C701B6010E94B1186093190470931A0488
:102D300080931B0490931C04809027049090280497
:102D4000A0902904B0902A0420E030E040EE50E446
:102D5000C501B4010E94D11A6B017C0120E030E072
:102D600040E351E4609115047091160480911704BA
:102D7000909118040E94D11A9B01AC01C701B601C1
:102D80000E94B0186B017C0120E030E040EA50E482
:102D900060911104709112048091130490911404B5
:102DA0000E94D11A9B01AC01C701B6010E94B11863
:102DB0009B01AC010E94B11820912304309124049E
:102DC00040912504509126040E94B1186B017C01AA
:102DD000C0920D04D0920E04E0920F04F092100401
:102DE00020E030E048EC52E40E947C1A18160CF007
:102DF0003BC180E090E0A8ECB2E48093090490939A
:102E00000A04A0930B04B0930C0420E030E04FE7D9
:102E100053E46091090470910A0480910B0490912D
:102E20000C040E94D11A20E030E048EC52E40E94E9
:102E300022196093090470930A0480930B04909301
:102E40000C0420E030E0A901C501B4010E941D1965
:102E500018160CF024C1C0922304D0922404E092EE
:102E60002504F09226048092150490921604A092F4
:102E70001704B09218048092110490921204A09248
:102E80001304B092140464E573E08FE294E00E94AE
:102E9000300F4091230450912404609125047091D7
:102EA00026048FE294E00E9479106AE573E08FE2D5
:102EB00094E00E94300F40910D0450910E046091F7
:102EC0000F04709110048FE294E00E9479106FE576
:102ED00073E08FE294E00E94300F4091090450911A
:102EE0000A0460910B0470910C048FE294E00E943C
:102EF000791020E030E0A901609127047091280446
:102F00008091290490912A040E947C1A18160CF0D2
:102F1000CFC06091090470910A0480910B049091D4
:102F20000C040E9494196B018AE00E942106B601EC
:102F300083E10E94210662E370E080E090E00E945D
:102F4000B80664E670E080E090E00E94B80668E6AB
:102F500073E08FED94E00E94300F40911D0450917A
:102F60001E0460911F047091200422E08FED94E014
:102F70000E948B0F60E773E08FED94E00E94300FAA
:102F800068E473E08FED94E00E94300F63E773E034
:102F90008FED94E00E94300F4091090450910A0493
:102FA00060910B0470910C048FED94E00E947910F5
:102FB0006FE773E08FED94E00E94300FC090210422
:102FC000D09022040D2C000CEE08FF082AE0B70177
:102FD000A601F7FE0DC06DE28FED94E00E947D0A20
:102FE00044275527BA014C195D096E097F092AE06B
:102FF0008FED94E00E943F0F68E473E08FED94E062
:103000000E94300F68E873E08FED94E00E94300F6B
:103010004091190450911A0460911B0470911C0492
:103020008FED94E00E9479100E94440E0115110565
:1030300009F4DACC0E94A204882309F4D5CC0E94BA
:103040000000D2CC6091CC047091CD047627672724
:10305000762790E080E00E94CA192DEC3CEC4CEC05
:103060005DE30E94D11A60CE20E030E0A901C701E3
:10307000B6010E941D1987FF09C010920904109221
:103080000A0410920B0410920C04BFCEC0920904E3
:10309000D0920A04E0920B04F0920C04B6CE109287
:1030A0002304109224041092250410922604DBCEEF
:1030B00070E060E08AE00E94210670E060E038CFB6
:1030C000052E97FB1EF400940E94771857FD07D039
:1030D0000E947F1807FC03D04EF40C94771850958B
:1030E0004095309521953F4F4F4F5F4F08959095F4
:1030F0008095709561957F4F8F4F9F4F0895A1E206
:103100001A2EAA1BBB1BFD010DC0AA1FBB1FEE1F61
:10311000FF1FA217B307E407F50720F0A21BB30BAC
:10312000E40BF50B661F771F881F991F1A9469F728
:1031300060957095809590959B01AC01BD01CF0184
:103140000895A29FB001B39FC001A39F700D811D80
:103150001124911DB29F700D811D1124911D0895A0
:103160005058BB27AA270E94C8180C94421A0E94E4
:10317000341A38F00E943B1A20F039F49F3F19F4BA
:1031800026F40C94311A0EF4E095E7FB0C942B1AFC
:10319000E92F0E94531A58F3BA176207730784077E
:1031A000950720F079F4A6F50C94751A0EF4E095C5
:1031B0000B2EBA2FA02D0B01B90190010C01CA01F1
:1031C000A0011124FF27591B99F0593F50F4503E9C
:1031D00068F11A16F040A22F232F342F4427585F8E
:1031E000F3CF469537952795A795F0405395C9F7A6
:1031F0007EF41F16BA0B620B730B840BBAF091505E
:10320000A1F0FF0FBB1F661F771F881FC2F70EC0FC
:10321000BA0F621F731F841F48F4879577956795CF
:10322000B795F7959E3F08F0B0CF9395880F08F0BB
:103230009927EE0F9795879508950E94071A08F42D
:1032400081E008950E9436190C94421A0E943B1A9C
:1032500058F00E94341A40F029F45F3F29F00C9492
:103260002B1A51110C94761A0C94311A0E94531A8D
:1032700068F39923B1F3552391F3951B550BBB27A5
:10328000AA2762177307840738F09F5F5F4F220FEA
:10329000331F441FAA1FA9F335D00E2E3AF0E0E8E1
:1032A00032D091505040E695001CCAF72BD0FE2F2B
:1032B00029D0660F771F881FBB1F261737074807BF
:1032C000AB07B0E809F0BB0B802DBF01FF27935877
:1032D0005F4F3AF09E3F510578F00C942B1A0C94F6
:1032E000761A5F3FE4F3983ED4F386957795679519
:1032F000B795F7959F5FC9F7880F911D96958795AC
:1033000097F90895E1E0660F771F881FBB1F6217CA
:1033100073078407BA0720F0621B730B840BBA0B88
:10332000EE1F88F7E09508950E949B196894B111EB
:103330000C94761A08950E945B1A88F09F5798F0B3
:10334000B92F9927B751B0F0E1F0660F771F881FAA
:10335000991F1AF0BA95C9F714C0B13091F00E94C4
:10336000751AB1E008950C94751A672F782F882785
:10337000B85F39F0B93FCCF3869577956795B395EB
:10338000D9F73EF490958095709561957F4F8F4F5A
:103390009F4F0895E89409C097FB3EF4909580955F
:1033A000709561957F4F8F4F9F4F9923A9F0F92F0B
:1033B00096E9BB279395F695879577956795B79589
:1033C000F111F8CFFAF4BB0F11F460FF1BC06F5F6F
:1033D0007F4F8F4F9F4F16C0882311F096E911C081
:1033E000772321F09EE8872F762F05C0662371F0A2
:1033F00096E8862F70E060E02AF09A95660F771FB6
:10340000881FDAF7880F9695879597F90895990F91
:103410000008550FAA0BE0E8FEEF16161706E8079E
:10342000F907C0F012161306E407F50798F0621BBF
:10343000730B840B950B39F40A2661F0232B242B94
:10344000252B21F408950A2609F4A140A6958FEFB3
:10345000811D811D089597F99F6780E870E060E005
:1034600008959FEF80EC089500240A94161617061D
:1034700018060906089500240A9412161306140665
:1034800005060895092E0394000C11F4882352F0C8
:10349000BB0F40F4BF2B11F460FF04C06F5F7F4F80
:1034A0008F4F9F4F089557FD9058440F551F59F067
:1034B0005F3F71F04795880F97FB991F61F09F3F21
:1034C00079F087950895121613061406551FF2CF4A
:1034D0004695F1DF08C0161617061806991FF1CF9A
:1034E00086957105610508940895E894BB276627C1
:1034F0007727CB0197F908950E94071A08F48FEFF8
:10350000089516F00C94431B0C94311A68940C9493
:103510002B1A0E945B1AA8F39923C1F3AEF3DF9331
:10352000CF931F930F93FF92C92FDD2788232AF093
:103530002197660F771F881FDAF720E030E040E818
:103540005FEB9FE3883920F0803E38F021968F773B
:103550000E94B118E8E6F0E004C00E94B118E5E965
:10356000F0E00E94511B8B01BE01EC01FB2E6F5756
:1035700071097595771F880B990B0E94CC1928E16A
:1035800032E741E35FE30E94E41AAF2D9801AE01F8
:10359000FF900F911F91CF91DF910E94C8180C945A
:1035A000421A0E94E41A0C94421A0E94341A38F00B
:1035B0000E943B1A20F0952311F00C942B1A0C94C6
:1035C000311A11240C94761A0E94531A70F3959FA5
:1035D000C1F3950F50E0551F629FF001729FBB270A
:1035E000F00DB11D639FAA27F00DB11DAA1F649FA6
:1035F0006627B00DA11D661F829F2227B00DA11D59
:10360000621F739FB00DA11D621F839FA00D611DDE
:10361000221F749F3327A00D611D231F849F600DFF
:10362000211D822F762F6A2F11249F5750409AF028
:10363000F1F088234AF0EE0FFF1FBB1F661F771FB4
:10364000881F91505040A9F79E3F510580F00C947F
:103650002B1A0C94761A5F3FE4F3983ED4F38695C8
:1036600077956795B795F795E7959F5FC1F7FE2B1F
:10367000880F911D9695879597F908950E94071ACE
:10368000880B990B08959F3F31F0915020F4879556
:1036900077956795B795880F911D9695879597F9BA
:1036A0000895DF93CF931F930F93FF92EF92DF92D2
:1036B0007B018C01689406C0DA2EEF010E94E41AA7
:1036C000FE01E894A5912591359145915591A6F378
:1036D000EF010E94C818FE019701A801DA9469F76A
:1036E000DF90EF90FF900F911F91CF91DF910895A0
:1036F00097FB072E16F4009407D077FD09D00E949F
:10370000931B07FC05D03EF4909581959F4F08953B
:10371000709561957F4F08950E94A118B7FF089595
:10372000821B930B0895AA1BBB1B51E107C0AA1F64
:10373000BB1FA617B70710F0A61BB70B881F991F52
:103740005A95A9F780959095BC01CD010895EE0F8B
:10375000FF1F0590F491E02D09940F931F93CF93D1
:10376000DF938230910510F482E090E0E09108054B
:10377000F091090530E020E0B0E0A0E0309799F446
:103780002115310509F44AC0281B390B24303105B5
:10379000D8F58A819B816115710589F1FB019383BD
:1037A0008283FE0111C0408151810281138148173B
:1037B0005907E0F04817590799F4109761F01296ED
:1037C0000C93129713961C933296CF01DF91CF91F1
:1037D0001F910F9108950093080510930905F4CFE8
:1037E0002115310551F04217530738F0A901DB01CB
:1037F0009A01BD01DF01F801C1CFEF01F9CF90932C
:10380000090580930805CDCFFE01E20FF31F8193D8
:1038100091932250310939832883D7CF209106050F
:1038200030910705232B41F42091FA023091FB02DD
:1038300030930705209306052091F8023091F90294
:103840002115310541F42DB73EB74091FC0250914E
:10385000FD02241B350BE0910605F0910705E217E8
:10386000F307A0F42E1B3F0B2817390778F0AC01A3
:103870004E5F5F4F2417350748F04E0F5F1F509380
:10388000070540930605819391939FCFF0E0E0E018
:103890009CCFCF93DF930097E9F0FC01329713821E
:1038A0001282A0910805B0910905ED0130E020E0F9
:1038B0001097A1F420813181820F931F209106057A
:1038C000309107052817390709F061C0F093070503
:1038D000E0930605DF91CF910895EA01CE17DF0747
:1038E000E8F54A815B819E0141155105B1F7E90177
:1038F000FB83EA8349915991C40FD51FEC17FD074B
:1039000061F4808191810296840F951FE90199836A
:103910008883828193819B838A83F0E0E0E0129622
:103920008D919C9113970097B9F52D913C9111972A
:10393000CD010296820F931F209106053091070555
:103940002817390739F6309751F51092090510926A
:103950000805B0930705A0930605BCCFD383C283A7
:1039600040815181840F951FC817D90761F44E5FBC
:103970005F4F88819981480F591F518340838A8105
:103980009B81938382832115310509F0B0CFF09399
:103990000905E09308059ECFFD01DC01C0CF13822D
:1039A0001282D7CF81E090E0F8940C94D71CF89461
:0239B000FFCF47
:1039B2000000000000000000000000000000000005
:1039C20000000000000000000000000000000000F5
:1039D200000000000000C0E0F0F8FCFCFEFFFCE08C
:1039E20000000000000000000000000000000000D5
:1039F20000000000000000000000000000000000C5
:103A020000000000000000000000000000000000B4
:103A12000000000000F8F8F8F8F8F8F8F8F8F8F8FC
:103A2200F8F0F0E0E0C080C0FCFFFFFFFF7F3F7FC7
:103A3200FFFFFFFFFF000000000000000000000089
:103A42000000000000000000000000000000000074
:103A52000000000000000000000000000000000064
:103A6200000000000000000000000F1F3F7FFFFF6A
:103A7200FFFFFFFFFFFFE7C7C7878F9F9FFFFFFF84
:103A8200C1C0E0FCFFFFFFFFFFFCFCFCFCFEFEFEF2
:103A9200FCFCF8F8F0E0C0C00000000000000000EC
:103AA2000000000000000000000000000000000014
:103AB2000000000000000000000000000000000004
:103AC2000080C0E0F1FBFFFFFFFFFF7F1F0F0F87AA
:103AD200E7FFFFFF1F1F3FF9F8F8F8F8F8F8FDFFBE
:103AE200FFFFFFFFFFFFFFFF7F3F0F070100000007
:103AF20000000000000000000000000000000000C4
:103B020000000000000000000000000000000000B3
:103B1200000000F0FEFFFFFFFFFFFFFFFFFFFFFEC1
:103B22007E3F3F0F1FFFFFFFFCF0E0F1FFFFFFFFB3
:103B3200FFFCF00101010101010101000000000090
:103B42000000000000000000000000000000000073
:103B52000000000000000000000000000000000063
:103B6200000000000000000303030303030303013A
:103B720001010100000000000000030F1F3F7F7FD2
:103B8200FFFFFFFF7F7F1F03000000000000000017
:103B92000000000000000000000000000000000023
:103BA200000000000000000000000A058000000084
:103BB2000000D804380465042505960474048804BA
:103BC200000000007D0A38042B0F2A0FBA0E1808D5
:103BD200220DFA0C160D0A0D290D18084308A90E1C
:103BE200C10C880C430C260CAE0B4F0B6E616E00A1
:103BF200696E66006F7666000D0A005043440065E8
:103C02006B3A2000756B313A2000756B3A200075D3
:103C12006B5F6C696D3A200054204F702E3A200081
:103C22002043005349472E206372746C3A2000549B
:103C32002053656E733A2000482053656E733A2014
:023C4200000080
:00000001FF
